:100000000227B602008653EFFE323202001253EF8F
:0A001000FD323202000A53EFFB320A
:07001B0002006653EFFE3204
:10002300022BC59002F9E0FCA3E0FDED1D70011C5D
:1000330014AA044C70F5EF1F70011E144E70E422D5
:10004300022E838FCFE5CD30E7FB75CDC0AFCF2236
:06005300020006C2AF220C
:06005B0002000ED2AF22EC
:1000630002001EC0E0C083C082C0D075D000C007AC
:0E007300122CF3D007D0D0D082D083D0E03250
:06008300020016C2CA32A1
:03008B00022EA59D
:03009300022A3B03
:03009B00022EE54D
:1000A300022DBC020478E86480F8E933E833601178
:1000B3000460F0ED33EC337009E8FCE9FDEAFEEB94
:1000C300FF220460DED3EB9FEA9EE99DE8C2E78C42
:1000D300F0C2F795F0400CE8CCF8E9CDF9EACEFA96
:1000E300EBCFFB12044385D0F05804700320D5B343
:1000F300E80470075002B2D502048292D5EC046082
:10010300F7E4CCC0E0C398F8603B94186008400D56
:10011300D0E0FB02045AE4FBFAC9FC8028E830E48F
:1001230006E4C9FBE4CAFCE830E305E4C9CACBFC36
:10013300E854076010F8C3E913F9EA13FAEB13FB69
:10014300EC13FCD8F130F52FC3E49CFCEF9BFFEEDE
:100153009AFEED99FDD0E0FBEF4E4D4C701222DB81
:100163000302047FEC2CFCEF33FFEE33FEED33FD93
:10017300ED30E7EB02045AEF2BFFEE3AFEED39FDCB
:10018300D0E0FB50130BBB0003020482ED13FDEE22
:1001930013FEEF13FFEC13FC02045AEC4D6011E85D
:1001A300497017ED33EC3304600DE4FCFFFEFD22D0
:1001B300E933E8330470F802047812044358046006
:1001C30009E4CC2481500628500902048228400304
:1001D30002047FC0E0EB4A7044B98006D0E0FB0222
:1001E300046EEF4E701CBD8008EBFFEAFEE9FD8054
:1001F300EBE98DF0A4FEE5F0020287E9CDF9EAFE12
:10020300EBFFEF89F0A4FCE5F0CE89F0A42EFFE428
:1002130035F0CD89F0A42DFEE435F08067EF4E7004
:1002230005BD80D780C3EF8BF0A4ACF0EE8BF0A4B8
:100233002CFCE435F0F8EF8AF0A42CE5F038FCE46C
:1002430033CB8DF0A42CFCE5F03BF8EE8AF0A42C24
:10025300FCE5F038F8E433CF89F0A42CFCE5F03862
:10026300CF3400CE89F0A42FFFE5F03EFEE433C97E
:100273008DF0A42EFEE5F039CD8AF0A42FFFE5F032
:100283003EFEE43DFD33D0E0FB50070BBB000F0205
:100293000482EC2CFCEF33FFEE33FEED33FD02045E
:1002A3005A020482EC5D046005E8590470030204F9
:1002B30078120443580460F6EC4860F2EC7004FDD5
:1002C300FEFF22C860DB2481C85009C39860025036
:1002D3000602047F9850CAF582E9294B4A7005ABA0
:1002E3008202046E75F0007C1A7880C3EF9BEE9A4D
:1002F300ED99400DC3EF9BFFEE9AFEED99FDE842A9
:10030300F0DC23ACF0D0E0FFD0E0FED0E0FDAB8228
:1003130020E7101BEB60BAEC2CFCEF33FFEE33FE4F
:10032300ED33FD02045AE803F830E705C0F075F039
:1003330000EF2FFFEE33FEED33FD40B830E7C28010
:10034300AA74F8CC6480CCC86480C8F58204604F7A
:10035300C3EB9FF5F0EA9E42F0E99D42F0E89C452D
:10036300F0603C501DE5825FFFE582D313CB5BCB8E
:10037300F42B5582FB50280ABA002409B90020083F
:10038300801DE5825BFBE582D313CF5FCFF4C313FC
:100393002F5582FF50090EBE00050DBD00010CC391
:1003A300EB9FF5F0EA9E42F0E99D42F0E89C45F0B0
:1003B3006007CC4820E701B3EC22ED33EC33600A4D
:1003C300047003BD8004ECB2E7FC2275F020800EBC
:1003D30075F010800575F0087D007E007F00339274
:1003E300D530D50312083DEC334010EF33FFEE3325
:1003F300FEED33FDEC33FCD5F0ED22E5F0247EA2D7
:10040300D513CC92E7CDCEFF22EDD2E7CD33EC333B
:1004130092D524814006E4FFFEFDFC22FCE4CFCE0E
:10042300CDCC24E0501174FF80EDC3CC13CCCD139D
:10043300CDCE13CECF13CF0470F030D5DE02083DFE
:10044300E9D2E7C933E833F892D5EDD2E7CD33ECFF
:1004530033FC5002B2D522EC30E7100FBF000C0E74
:10046300BE00080DBD00040BEB6014A2D5EB13FC1A
:10047300ED92E7FD2274FFFCFDFEFF22E480F8A26B
:10048300D574FF13FC7D80E480EFE709F608DFFAFB
:100493008046E709F208DFFA803E88828C83E70909
:1004A300F0A3DFFA8032E309F608DFFA8078E30984
:1004B300F208DFFA807088828C83E309F0A3DFFA05
:1004C300806489828A83E0A3F608DFFA80588982F0
:1004D3008A83E0A3F208DFFA804C80D280FA80C6D8
:1004E30080D4806980F28033801080A680EA809A6D
:1004F30080A880DA80E280CA803389828A83ECFA1A
:10050300E493A3C8C582C8CCC583CCF0A3C8C58275
:10051300C8CCC583CCDFE9DEE7800D89828A83E41A
:1005230093A3F608DFF9ECFAA9F0EDFB2289828A9E
:1005330083ECFAE0A3C8C582C8CCC583CCF0A3C8BA
:10054300C582C8CCC583CCDFEADEE880DB89828A3A
:1005530083E493A3F208DFF980CC88F0EF60010E07
:100563004E60C388F0ED2402B4040050B9F582EB69
:100573002402B4040050AF23234582239004DD7387
:10058300C2D530F707B2D563F0FF05F030E70CB200
:10059300D5F4048463F0FF05F080018430D502F4C0
:1005A3000422BB010689828A83E0225002E722BB30
:1005B300FE02E32289828A83E49322BB010CE58253
:1005C30029F582E5833AF583E0225006E92582F88E
:1005D300E622BBFE06E92582F8E222E58229F582BE
:1005E300E5833AF583E49322BB010689828A83F08B
:1005F300225002F722BBFE01F322F8BB010DE58274
:1006030029F582E5833AF583E8F0225006E925824D
:10061300C8F622BBFE05E92582C8F222EF8DF0A4BD
:10062300A8F0CF8CF0A428CE8DF0A42EFE22BC001F
:100633000BBE0029EF8DF084FFADF022E4CCF875FA
:10064300F008EF2FFFEE33FEEC33FCEE9DEC984009
:1006530005FCEE9DFE0FD5F0E9E4CEFD22EDF8F5A5
:10066300F0EE8420D21CFEADF075F008EF2FFFED05
:1006730033FD4007985006D5F0F222C398FD0FD5FD
:10068300F0EA22C2D5EC30E709B2D5E4C39DFDE41C
:100693009CFCEE30E715B2D5E4C39FFFE49EFE1247
:1006A3000631C3E49DFDE49CFC800312063130D582
:1006B30007C3E49FFFE49EFE22C5F0F8A3E028F001
:1006C300C5F0F8E582158270021583E038F022A3A5
:1006D300F8E0C5F025F0F0E582158270021583E09D
:1006E300C838F0E822BB0110E58229F582E5833A98
:1006F300F583E0F5F0A3E0225009E92582F886F0BE
:1007030008E622BBFE0AE92582F8E2F5F008E222B8
:10071300E5832AF583E993F5F0A3E99322E88FF0C3
:10072300A4CC8BF0A42CFCE98EF0A42CFC8AF0ED75
:10073300A42CFCEA8EF0A4CDA8F08BF0A42DCC3829
:1007430025F0FDE98FF0A42CCD35F0FCEB8EF0A461
:10075300FEA9F0EB8FF0A4CFC5F02ECD39FEE43C1B
:10076300FCEAA42DCE35F0FDE43CFC2275F00875BF
:100773008200EF2FFFEE33FECD33CDCC33CCC582D9
:1007830033C5829BED9AEC99E58298400CF582EE95
:100793009BFEED9AFDEC99FC0FD5F0D6E4CEFBE47D
:1007A300CDFAE4CCF9A88222B800C1B90059BA0045
:1007B3002DEC8BF084CFCECDFCE5F0CBF97818EFA0
:1007C3002FFFEE33FEED33FDEC33FCEB33FB10D7A1
:1007D30003994004EB99FB0FD8E5E4F9FA22781862
:1007E300EF2FFFEE33FEED33FDEC33FCC933C910BD
:1007F300D7059BE99A4007EC9BFCE99AF90FD8E0EF
:10080300E4C9FAE4CCFB2275F010EF2FFFEE33FEC0
:10081300ED33FDCC33CCC833C810D7079BEC9AE833
:1008230099400AED9BFDEC9AFCE899F80FD5F0DAB4
:10083300E4CDFBE4CCFAE4C8F922C3E49FFFE49ED1
:10084300FEE49DFDE49CFC22EB9FF5F0EA9E42F062
:10085300E99D42F0EC6480C864809845F022EB9FE8
:10086300F5F0EA9E42F0E99D42F0E89C45F022E86B
:10087300600FECC313FCED13FDEE13FEEF13FFD873
:10088300F122BB010789828A8302097A5005E9F8BC
:1008930002096EBBFE05E9F802098689828A830292
:1008A30009927401FF3395E0FEFDFCA3A3A3E0CFFF
:1008B3002FF0E582158270021583E0CE3EF0E582CB
:1008C300158270021583E0CD3DF0E582158270023A
:1008D3001583E0CC3CF022ECF0A3EDF0A3EEF0A303
:1008E300EFF022A8828583F0D083D0821208FD1214
:1008F30008FD1208FD1208FDE473E493A3C583C544
:10090300F0C583C8C582C8F0A3C583C5F0C583C835
:10091300C582C822F5F0C582A4C582C5F0C583A4EB
:100923002583F58322BB010789828A830209AB50A1
:1009330005E9F80209A2BBFE05E9F80209B48982B8
:100943008A830209BDD083D082F8E49370127401C4
:1009530093700DA3A393F8740193F5828883E473D2
:100963007402936860EFA3A3A380DFE6FC08E6FDAF
:1009730008E6FE08E6FF22E0FCA3E0FDA3E0FEA3F9
:10098300E0FF22E2FC08E2FD08E2FE08E2FF22E4C7
:1009930093FC740193FD740293FE740393FF22E6A8
:1009A300FB08E6FA08E6F922E0FBA3E0FAA3E0F984
:1009B30022E2FB08E2FA08E2F922E493FB740193D2
:1009C300FA740293F922900250E07002A3E07039A6
:1009D300900252E07002A3E0702F900254E0700284
:1009E300A3E07025900256E07002A3E0701B900212
:1009F30058E07002A3E0701190025AE07004A3E083
:100A0300640170059001E68041900250E07002A3FA
:100A1300E0704D900252E07002A3E07043900254E4
:100A2300E07002A3E07039900256E07002A3E07018
:100A33002F900258E07004A3E06401702390025ADF
:100A4300E07002A3E070199001E4E0FCA3E0FDEC88
:100A53001203D3E4FBFA792078411202A7020BF0C8
:100A6300900250E07002A3E07036900252E07002F0
:100A7300A3E0702C900254E07002A3E07022900275
:100A830056E07004A3E064017016900258E070020F
:100A9300A3E0700C90025AE07002A3E07002804061
:100AA300900250E07002A3E0704F900252E0700297
:100AB300A3E07045900254E07002A3E0703B900203
:100AC30056E07004A3E06401702F900258E07004B4
:100AD300A3E06401702390025AE07002A3E070194E
:100AE3009001E2E0FCA3E0FDEC1203D3E4FBFA790E
:100AF3002078411202A7020B93900250E0FEA3E07C
:100B0300FF4E703BA3E07002A3E07033900254E009
:100B13007004A3E064017027900256E07004A3E020
:100B23006401701B900258E07002A3E07011900200
:100B33005AE07002A3E070079001D4F0A3F022EF13
:100B43004E7053900252E07002A3E0704990025439
:100B5300E07004A3E06401703D900256E07002A3CC
:100B6300E07033900258E07002A3E0702990025ABB
:100B7300E07002A3E0701F9001E2E0FCA3E0FDEC53
:100B83001203D3E4FBFA792078411202A71203BDC2
:100B9300900269020DB7900250E07002A3E0705317
:100BA300900252E07004A3E064017047900254E0A5
:100BB3007002A3E0703D900256E07002A3E0703330
:100BC300900258E07002A3E0702990025AE070028C
:100BD300A3E0701F9001E4E0FCA3E0FDEC1203D35B
:100BE300E4FBFA792078411202A71203BD9001EACF
:100BF300020DB7900250E07002A3E07055900252CC
:100C0300E07004A3E064017049900254E07004A30F
:100C1300E06401703D900256E07002A3E0703390EF
:100C23000258E07002A3E0702990025AE07002A318
:100C3300E0701F9001E4E0FCA3E0FDEC1203D3E4B9
:100C4300FBFA792078411202A71203BD9001EA0250
:100C53000DB7900250E07004A3E06401705190025C
:100C630052E07002A3E07047900254E07002A3E0E8
:100C7300703D900256E07002A3E07033900258E09A
:100C83007002A3E0702990025AE07002A3E0701F83
:100C93009001E6E0FCA3E0FDEC1203D3E4FBFA7958
:100CA3002078411202A71203BD9001EA020DB7900A
:100CB3000250E07002A3E06003020DD0900252E004
:100CC3007002A3E06003020DD0900254E07002A30F
:100CD300E06003020DD0900256E07002A3E06003CF
:100CE300020DD0900258E07002A3E06003020DD021
:100CF30090025AE07002A3E06003020DD09001E677
:100D0300E0FCA3E0FDEC1203D3E4FBFA7920784185
:100D13001202A71203BD9001EAE0F8A3E0F9A3E0F1
:100D2300FAA3E0FB12019EC004C005C006C00790F1
:100D330001D4E0FCA3E0FDEC1203D3A804A905AAA7
:100D430006AB07D007D006D005D004120344700BBE
:100D5300FFFE7D407CC09001EA80599001E6E0FCF3
:100D6300A3E0FDEC1203D3E4FBFA792078411202ED
:100D7300A79001EAE0F8A3E0F9A3E0FAA3E0FB12ED
:100D8300019EC004C005C006C0079001D4E0FCA3C7
:100D9300E0FDEC1203D3A804A905AA06AB07D0070C
:100DA300D006D005D0041203447022FFFE7D407CA0
:100DB300409001EAE0F8A3E0F9A3E0FAA3E0FB1214
:100DC300019E12040C9001D4EEF0A3EFF022ED602B
:100DD30003020EA8EF54F0F9FB7A007013EF540FDF
:100DE300FEF87401088002C333D8FCF45293529482
:100DF300EB64104A7013EF540FFEF874010880027D
:100E0300C333D8FCF452915292E964207013EF5427
:100E13000FFEF87401088002C333D8FCF4529552D4
:100E230096E9FB7A0064307013EF540FFEF87401F7
:100E3300088002C333D8FCF452B152B2EB64404A87
:100E43007013EF540FFEF87401088002C333D8FC0B
:100E5300F452B352B4E964507013EF540FFEF874B4
:100E630001088002C333D8FCF452C952CAE9FB7AA1
:100E73000064607013EF540FFEF87401088002C31E
:100E830033D8FCF452CB52CCEB64704A60030211AA
:100E93005DEF540FFEF87401088002C333D8FCF4ED
:100EA30052E152E222ED64016003020F90EF54F02D
:100EB300F9FB7A007015EF540FFEF87401088002F5
:100EC300C333D8FCFEF45293EE4294EB64104A70A1
:100ED30015EF540FFEF87401088002C333D8FCFEEB
:100EE300F45291EE4292E964207015EF540FFEF82C
:100EF3007401088002C333D8FCFEF45295EE429687
:100F0300E9FB7A0064307015EF540FFEF8740108A2
:100F13008002C333D8FCFEF452B1EE42B2EB64401C
:100F23004A7015EF540FFEF87401088002C333D8DA
:100F3300FCFEF452B3EE42B4E964507015EF540F63
:100F4300FEF87401088002C333D8FCFEF452C9EEE4
:100F530042CAE9FB7A0064607015EF540FFEF8741F
:100F630001088002C333D8FCFEF452CBEE42CCEB33
:100F730064704A600302115DEF540FFEF8740108B8
:100F83008002C333D8FCFEF452E102115AED64022D
:100F93006003021079EF54F0F9FB7A007015EF54F7
:100FA3000FFEF87401088002C333D8FCFE4293EEAF
:100FB300F45294EB64104A7015EF540FFEF8740169
:100FC300088002C333D8FCFE4291EEF45292E964E6
:100FD300207015EF540FFEF87401088002C333D854
:100FE300FCFE4295EEF45296E9FB7A0064307015EC
:100FF300EF540FFEF87401088002C333D8FCFE429D
:10100300B1EEF452B2EB64404A7015EF540FFEF8A0
:101013007401088002C333D8FCFE42B3EEF452B429
:10102300E964507015EF540FFEF87401088002C391
:1010330033D8FCFE42C9EEF452CAE9FB7A0064607D
:101043007015EF540FFEF87401088002C333D8FC07
:10105300FE42CBEEF452CCEB64704A600302115DA6
:10106300EF540FFEF87401088002C333D8FCFE422C
:10107300E1EEF452E222ED6403600302115DEF54EA
:10108300F0FD7C007014EF540FFEF8740108800229
:10109300C333D8FCFE4293EE4294ED64104C7014BB
:1010A300EF540FFEF87401088002C333D8FCFE42EC
:1010B30091EE4292EF54F064207014EF540FFEF857
:1010C3007401088002C333D8FCFE4295EE4296EFCA
:1010D30054F0FD7C0064307014EF540FFEF874017B
:1010E300088002C333D8FCFE42B1EE42B2ED644045
:1010F3004C7014EF540FFEF87401088002C333D808
:10110300FCFE42B3EE42B4EF54F064507014EF545B
:101113000FFEF87401088002C333D8FCFE42C9EE07
:1011230042CAEF54F0FD7C0064607014EF540FFE6C
:10113300F87401088002C333D8FCFE42CBEE42CCE4
:10114300ED64704C7014EF540FFEF87401088002C4
:10115300C333D8FCFE42E1EE42E22243BA80E59D6E
:10116300603178FAE6FBAF9FC3EF9BFFE49400FE88
:10117300E49400FDE49400FC7BE07A287901780094
:10118300120720E42FFFEE3451FEED3425FDEC343D
:1011930002802E78FBE6FBAF9FC3EF9BFFE4940036
:1011A300FEE49400FDE49400FCE47B807ABBF9F850
:1011B300120720E42FFFEE3436FEED346EFDEC34DF
:1011C30001FC9002B11208DA9002B1E0FCA3E0FD49
:1011D300A3E0FEA3E0FFC00790FE01E0FBE4FAF901
:1011E300F8D0071207AB9002B11208DA7FC07EF67F
:1011F3007D577C009002B1E0F8A3E0F9A3E0FAA3E5
:10120300E0FBC312086150097F007E607D547C00BF
:10121300227FC07E267D827C009002B1E0F8A3E0AD
:10122300F9A3E0FAA3E0FBC312086150097F807EB3
:101233008D7D5B7C00227F807EED7DAF7C00900204
:10124300B1E0F8A3E0F9A3E0FAA3E0FBC31208615D
:1012530050097F007EC07DA87C00227F807E2D7D8B
:10126300E87C009002B1E0F8A3E0F9A3E0FAA3E080
:10127300FBC312086150097F007E1B7DB77C0022EF
:101283007F807E367D257C019002B1E0F8A3E0F9F2
:10129300A3E0FAA3E0FBC312086150097F007E407C
:1012A3007D197C01227F807E567D417C019002B1B5
:1012B300E0F8A3E0F9A3E0FAA3E0FBC3120861504E
:1012C300097F007E2D7D317C01227F007EDB7D5FE7
:1012D3007C019002B1E0F8A3E0F9A3E0FAA3E0FBFC
:1012E300C312086150097F007E807D517C01227FFB
:1012F300607E197D857C019002B1E0F8A3E0F9A33B
:10130300E0FAA3E0FBC312086150097F007E367D3B
:101313006E7C01227F207EE07DB27C019002B1E0F1
:10132300F8A3E0F9A3E0FAA3E0FBC31208615009B4
:101333007FC07EFC7D9B7C01227FE07EA67DE07CDE
:10134300019002B1E0F8A3E0F9A3E0FAA3E0FBC344
:1013530012086150097F807EC37DC97C01227F60B2
:101363007E2B7DFF7C019002B1E0F8A3E0F9A3E0BE
:10137300FAA3E0FBC312086150097F007E407DFAA7
:101383007C01227F607E477D247C029002B1E0F8DD
:10139300A3E0F9A3E0FAA3E0FBC312086150097FBD
:1013A300C07E0E7D167C02227F007E6D7D4A7C020C
:1013B3009002B1E0F8A3E0F9A3E0FAA3E0FBC312C3
:1013C300086150097F007E807D327C02227F807E0F
:1013D300DE7D807C029002B1E0F8A3E0F9A3E0FA9D
:1013E300A3E0FBC312086150097F007E5A7D627C33
:1013F30002227F807EE77DBD7C029002B1E0F8A3EC
:10140300E0F9A3E0FAA3E0FBC31208615008E4FF8C
:10141300FE7DA37C02227F007E6C7DDC7C02229019
:1014230002B1EFF0E49002BAF0A3F043BA80900265
:10143300B1E0FF121E9E9002B2E0F8A3E0F9A3E030
:10144300FAA3E0FB9002F5E0FCA3E0FDA3E0FEA31A
:10145300E0FF1207AB78101208729002BAEEF0A305
:10146300EFF09002B2E0F8A3E0F9A3E0FAA3E0FB07
:101473009002F5E0FCA3E0FDA3E0FEA3E0FF12076A
:10148300ABC006C0079002BBE02401FF9002BAE0A4
:101493003400AB07FAE4F9F8D007D0061207ABEF34
:1014A30024FFFFEE34FF9002B8F0A3EFF09002B6F2
:1014B300E0FCA3E0FDE41203D37B007A40791C78BF
:1014C300461202A7C004C005C006C0079002B8E0D8
:1014D300FCA3E0FDE41203D3D003D002D001D0007B
:1014E30012019E12040CAD07AC069002B1E0FFD3CB
:1014F30074409F7480F89840030215D490FEB5C0E1
:1015030083C082E0FF9002B1E0FEC4540F24FCF9D3
:1015130025E0FBF87401088002C333D8FC4FD08266
:10152300D083F090FEB6C083C082E0FFEE5403FE8A
:10153300A803088002C333D8FC4FD082D083F0E9DC
:10154300C31324ECFFE434FE8F82F583C083C0828F
:10155300E0FF9002B1E0F9C4540FFE540125E025E9
:10156300E0FBF87401088002C333D8FC4FD082D06B
:1015730083F0EE24E4FFE434FE8F82F583E04460DD
:10158300F0E04408F09002B8E0FFA3E090FEF2CF51
:10159300F0A3EFF09002BAE0FFA3E090FEF0CFF0EB
:1015A300A3EFF0E9C4540F24FCFFE434FFFEEF255E
:1015B300E0FFEE33FEEF24F5FFEE34FE8F82F5837A
:1015C300ECF0A3EDF090FEFD7480F090FEE00216C7
:1015D300C090FEB1C083C082E0FB9002B1E0FA5438
:1015E30001F97E007401A801088005C333CE33CE10
:1015F300D8F9FFEAC4540F25E0FAEFA802088005E2
:10160300C333CE33CED8F94BD082D083F090FEB221
:10161300C083C082E0FF9002B1E05407C313FEA869
:1016230002088002C333D8FC4FD082D083F09002EB
:10163300B1E0FFC413540724CCFBE434FE8B82F5E2
:1016430083C083C082E0FEEFC4540FFF540125E042
:1016530025E0FBE925E02BFBF87401088002C33386
:10166300D8FC4ED082D083F0EF24C8FFE434FE8F41
:1016730082F583E04460F0E04408F09002B8E0FFB4
:10168300A3E090FED2CFF0A3EFF09002BAE0FFA365
:10169300E090FED0CFF0A3EFF09002B1E0C4540F7E
:1016A30075F002A424D5FFE5F034FE8F82F583ECB8
:1016B300F0A3EDF090FEDD7480F090FEC07401F0B5
:1016C30022900250E0FEA3E0FF64014E7037A3E0D6
:1016D3007004A3E06401702D900254E07004A3E051
:1016E30064017021900256E07002A3E0701790022B
:1016F30058E07002A3E0700D90025AE07002A3E07C
:10170300700302178AEF4E703A900252E07004A3FE
:10171300E06401702E900254E07004A3E064017051
:1017230022900256E07004A3E06401701690025800
:10173300E07002A3E0700C90025AE07002A3E07024
:10174300028044900250E07004A3E0640170429070
:101753000252E07004A3E064017036900254E0701A
:1017630004A3E06401702A900256E07004A3E064CD
:1017730001701E900258E07002A3E0701490025AA8
:10178300E07002A3E0700A9001D6F0A304F00218FF
:1017930062900250E0FEA3E0FF4E7039A3E07002B6
:1017A300A3E07031900254E07004A3E0640170255B
:1017B300900256E07004A3E064017019900258E0AF
:1017C3007004A3E06401700D90025AE07002A3E07C
:1017D300700302185AEF4E703A900252E07002A35F
:1017E300E07030900254E07002A3E070269002563D
:1017F300E07004A3E06401701A900258E07004A33F
:10180300E06401700E90025AE07004A3E06401707A
:10181300028044900250E07002A3E07042900252B2
:10182300E07002A3E07038900254E07004A3E06417
:1018330001702C900256E07004A3E06401702090C4
:101843000258E07004A3E06401701490025AE0703F
:1018530004A3E0640170089001D6F0A37402F09031
:101863000250E07004A3E0640160030218F29002E6
:1018730052E07004A3E064017075900254E07004B8
:10188300A3E064017069900256E07004A3E0640170
:10189300705D900258E07004A3E0640170519002FF
:1018A3005AE07004A3E064017045900264E07002A2
:1018B300A3E0703BD390025FE0940690025EE06485
:1018C300809480402AE4900260F0A3F07DFFFC7FC7
:1018D3000412216E7DFF7C007F1412216E7DFF7C3C
:1018E300007F2412216E7DFF7C007F3412216E2243
:1018F3009002B47412F0E4A3F0A3F0A3F07B117D83
:10190300107F01122472C2A07F0A7E00120026D229
:10191300A07F787E001200267F11122F497F787EE8
:10192300001200267FB1122F497F01122F537F2C03
:10193300122F537F2D122F537FB2122F497F011283
:101943002F537F2C122F537F2D122F537FB3122F20
:10195300497F01122F537F2C122F537F2D122F53A8
:101963007F01122F537F2C122F537F2D122F537F62
:10197300B4122F497F07122F537FC0122F497FA222
:10198300122F537F02122F537F84122F537FC112C2
:101993002F497FC5122F537FC2122F497F0A122F5F
:1019A30053E4FF122F537FC3122F497F8A122F5301
:1019B3007F2A122F537FC4122F497F8A122F537FFE
:1019C300EE122F537FC5122F497F0E122F537F36EE
:1019D300122F49E4701F0414600E14600F1460107A
:1019E300240370117FC0800AE4FF80067FA0800279
:1019F3007F60122F537FE0122F497F0F122F537FE7
:101A03001A122F537F0F122F537F18122F537F2F2A
:101A1300122F537F28122F537F20122F537F22120E
:101A23002F537F1F122F537F1B122F537F23122FEE
:101A3300537F37122F53E4FF122F537F07122F5375
:101A43007F02122F537F10122F537FE1122F497FF2
:101A53000F122F537F1B122F537F0F122F537F17FA
:101A6300122F537F33122F537F2C122F537F2912A0
:101A73002F537F2E122F537F30122F537F30122F6D
:101A8300537F39122F537F3F122F53E4FF122F53EB
:101A93007F07122F537F03122F537F10122F537F71
:101AA3002A122F49E4FF122F537F02122F53E4FF10
:101AB300122F537F82122F537F2B122F49E4FF12D1
:101AC3002F537F03122F53E4FF122F537F83122FC1
:101AD300537FF0122F497F01122F537FF6122F49A4
:101AE300E4FF122F537F3A122F497F05122F537FA2
:101AF30029122F4974FFFFFE022B6A9002B1EFF007
:101B0300A3EDF0A3EBF0A3E0F8A3E0F9A3E0FAA3BD
:101B1300E0FB9002F5E0FCA3E0FDA3E0FEA3E0FF01
:101B23001207ABE47B04FAF9F81207ABC3E49FFF97
:101B3300E49EAD07FC9002B1E0147003021BD714BE
:101B43007003021C1A147003021C73240360030243
:101B53001CD09002B8E0FB7A0064017014439850E3
:101B63008D8BECF58D438E40D28EE49001CAF080CC
:101B730011EB64024A700B4398508DD7ECF5D643B2
:101B83008E1553A23F9002B2E0F9FF7E007008A3C6
:101B9300E0640170028035EF64024E700D9002B371
:101BA300E06403700543A2408022E96404700D9051
:101BB30002B3E06405700543A2808010E9640670F7
:101BC3000B9002B3E06407700343A2C0E49001CA20
:101BD300F0D2AC229002B8E06402700B439A108DED
:101BE300D7ECF5D6438E1453BAFE9002B2E0FF7ED3
:101BF3000064087008A3E0640970028011EF640AAE
:101C03004E700B9002B3E0640B700343BA0143AF11
:101C130001E49001CBF0229002B8E0FB7A00640269
:101C2300700D43AC108DD7ECF5D6438E148011EBB9
:101C330064034A700B43AC508DD5ECF5D443D10A01
:101C430053BAFD9002B2E0FF7E00640C7008A3E07B
:101C5300640D70028011EF640E4E700B9002B3E0BE
:101C6300640F700343BA0243AF08E49001CCF0223F
:101C73009002B8E0FB7A006402700D4384108DD7A4
:101C8300ECF5D6438E148011EB64044A700B438445
:101C9300508DD3ECF5D243D1A053BAFB9002B2E0FE
:101CA300FF7E0064107008A3E0641170028016EFD9
:101CB30064124E70109002B3E064137008F5CA7595
:101CC300C90443BA0443AF10E49001CDF0221200DB
:101CD30056122B0E122F6B1218F37D037C007F011B
:101CE3001227299002687401F0E49001CEF0A3F06A
:101CF300A3F0A37408F0A2A4E433FF7D02120DD174
:101D0300A2FDE433FF7D02120DD1A2FCE433FF7D7B
:101D130002120DD1A2FEE433FF7D02120DD1A2A661
:101D2300E433FF7D02120DD1A2E9E433FF7D0212F9
:101D33000DD1A286E433FF7D02120DD1A284E433D8
:101D4300FF7D02120DD1A283E433FF7D02120DD178
:101D5300A285E433FF7D02120DD1A287E433FF7D18
:101D630002120DD1A282E433FF7D02120DD1122F94
:101D73001E12005E9002B21208E6000003E8E4902F
:101D830002B6F0A3F07F041214229002B21208E606
:101D9300000003E8E49002B6F0A3F07F14121422CB
:101DA3009002B21208E6000003E8E49002B6F0A342
:101DB300F07F241214229002B21208E6000003E816
:101DC300E49002B6F0A3F07F34121422900264E090
:101DD3007002A3E0605A12268A122545900250A38E
:101DE300E024309002ABF0900252A3E02430900242
:101DF300ACF0900254A3E024309002ADF090025670
:101E0300A3E024309002AEF0900258A3E024309077
:101E130002AFF090025AA3E024309002B0F07B01AD
:101E23007A0279AB7D097C00E4FFFE122953809C82
:101E33009001E0E0FFA3E09001D2CFF0A3EFF09098
:101E430001DCE0FCA3E0FDEC1203D390026912086D
:101E5300DA9001DEE0FCA3E0FDEC1203D39001EA8B
:101E63001208DA9001DAE0FFA3E09001D8CFF0A3E3
:101E7300EFF0E490025EF0A3F07DE87C037F0312B1
:101E83002729900260E07002A3E0600E1216C412CC
:101E930009C912284212228180E822EF1209481F41
:101EA30024001F2B011F32021F39031F40041F4749
:101EB300051F4E101F55111F5C121F63131F6A1459
:101EC3001F71151F78201F7F211F86221F8D231F3F
:101ED30094241F9B251FA2301FA9311FAF321FB5AA
:101EE300331FBB341FC1351FC7361FCD371FD34028
:101EF3001FD9411FDF421FE5431FEB501FF1511F45
:101F0300F7521FFD53200360200961200F62201543
:101F130063201B701FC771202172202773000020CC
:101F23002E7D017F1002202B7D017F1102202B7D4E
:101F3300017F2002202B7D017F2102202B7D017F49
:101F43006002202B7D017F6102202B7D017F120225
:101F5300202B7D017F1302202B7D017F2202202B6A
:101F63007D017F2302202B7D017F6202202B7D01D7
:101F73007F6302202B7D017F1402202B7D017F15BF
:101F830002202B7D017F2402202B7D017F2502204F
:101F93002B7D017F6402202B7D017F6502202B7D39
:101FA300017F1602202B7D017F17807C7D017F2618
:101FB30080767D017F2780707D017F66806A7D0149
:101FC3007F6780647D017F34805E7D017F3380582D
:101FD3007D017F2080527D017F17804C7D01E4FFCE
:101FE30080467D017F7480407D017F21803A7D01A1
:101FF3007F5480347D017F01802E7D017F75802891
:102003007D017F2280227D017F33801C7D017F0241
:1020130080167D017F7680107D017F23800A7D01FC
:102023007F0380047D017F77120DD1229002B1EEF0
:10203300F0A3EFF0A3ECF0A3EDF0A3EAF0A3EBF031
:10204300C3EA648094809002B4E05034C4F8540F1F
:10205300C868FD9002B3E0C454F048FC9002B1E0BC
:10206300FEA3E0FF7B2D12239B9002B5E0FEA3E0CD
:10207300FFC3E49FFFE49E9002B5F0A3EFF0801D41
:10208300C4F8540FC868FD9002B3E0C454F048FC90
:102093009002B1E0FEA3E0FF7B2012239B9002B5E8
:1020A300E0FAA3E0FB7C277D10FFAE02120686A3B5
:1020B300EFF07C037DE8AF03AE021206867C007D61
:1020C3000A120686A3EDF09002B5A3E07C007D64BE
:1020D300FFAE021206867C007D0A1206869002B9C4
:1020E300EDF07C007D0AAF03AE021206867C007D14
:1020F3000A120686A3EDF09002B5E0FEA3E0FF7C92
:10210300007D0A1206869002BBEDF0E4A3F0900274
:10211300BCE0FBFF7E00C3940574809480504BEFBA
:102123002401FFEE33FEEF7803C333CE33CED8F969
:10213300FF9002B2E02FFF9002B1E03EFE9002B4A6
:10214300E0C4F8540FC868FD9002B3E0C454F048EB
:10215300FC74B72BF582E43402F583E02430FB12E0
:10216300239B9002BCE004F080A4229002B1EFF024
:10217300AE04AF05E41203D3A804A905AA06AB076E
:10218300E4FFFE7D7F7C431200A9E4FBFA797F78AC
:10219300431202A77B007A40791C784612019E12F3
:1021A300040C9002B4EEF0A3EFF09002B1E0FFD381
:1021B30074409F7480F8989002B4E0FC5060A3E0F0
:1021C300FDE41203D37B007A40791C78461202A700
:1021D300C004C005C006C00790FEF2E0FCA3E0FD0A
:1021E300E41203D3D003D002D001D00012019E1217
:1021F300040C9002B2EEF0A3EFF09002B2E0FCA365
:10220300E0FD9002B1E0C4540F24FCFFE434FFFE70
:10221300EF25E0FFEE33FEEF24F5FFEE8054A3E05D
:10222300FDE41203D37B007A40791C78461202A79F
:10223300C004C005C006C00790FED2E0FCA3E0FDC9
:10224300E41203D3D003D002D001D00012019E12B6
:10225300040C9002B2EEF0A3EFF09002B2E0FCA304
:10226300E0FD9002B1E0C4540F75F002A424D5FF41
:10227300E5F034FE8F82F583ECF0A3EDF0229001BC
:10228300D4E0FAA3E0FB9001D2E0FCA3E0FDEB2D48
:10229300FEEA3C9001E8F0A3CEF0C3ED9BFEEC9A7E
:1022A30090024EF0A3CEF09001E8E0FEA3E0C394C9
:1022B30001EE6480947F500A9001E874FFF0A374E8
:1022C30001F09001E8E0FEA3E0D394FFEE64809474
:1022D3008040099001E8E4F0A374FFF090024EE01F
:1022E300FEA3E0C39401EE6480947F500A90024EF3
:1022F30074FFF0A37401F090024EE0FEA3E0D394C8
:10230300FFEE64809480400990024EE4F0A374FFD2
:10231300F090024EE0FCA3E0FDD39400EC648094C3
:102323008040097F0412216EE4FD8016E4FDFC7FEA
:102333000412216E90024EE0FEA3E0FFC3E49FFD72
:10234300E49EFC7F1412216E9001E8E0FCA3E0FD03
:10235300D39400EC6480948040097F2412216EE4BE
:10236300FD8016E4FDFC7F2412216E9001E8E0FE5F
:10237300A3E0FFC3E49FFDE49EFC7F3412216E22A1
:10238300C4F8540FC868FD900000E0C454F048FC42
:10239300900000E0FEA3E0FF9002BDEEF0A3EFF09B
:1023A300A3ECF0A3EDF0A3EBF0E4A3F09002C2E002
:1023B300F9C39410748094804003022471E9FF9060
:1023C30002C0E02FFD9002BFE03400FC9002BEE0AB
:1023D3002407FB9002BDE03400FA7E009002BFE0C8
:1023E300F8A3E02FFFEE389002CBF0A3EFF09002BA
:1023F300BDE0FEA3E0FF122AAD9002C1E0FF3395DA
:10240300E0FEEFC4F8540FC868FFEEC454F048FE72
:1024130074712FF582742D3EF583C083C0829002C0
:10242300C2E0D082D0832582F582E43583F583E44C
:10243300939002C4F0E49002C3F09002C3E0C3940B
:102443000874809480501EA3E030E003E48002749B
:10245300FFFFFE122E609002C4E0C313F09002C38C
:10246300E004F080D59002C2E004F00223AF229092
:1024730002B1EFF014601E14602F14604024037047
:1024830051E4FD7F13120DD1E4FD7F14120DD1E44D
:10249300FD7F15803AE4FD7F23120DD1E4FD7F24F7
:1024A300120DD1E4FD7F258026E4FD7F40120DD17E
:1024B300E4FD7F41120DD1E4FD7F438012E4FD7FF3
:1024C30034120DD1E4FD7F33120DD1E4FD7F3212BE
:1024D3000DD153A2F39002B1E014600A14600C14FE
:1024E300600E2403800D43A204800843A2088003E6
:1024F30043A20C53CEF39002B5E024FE600C1460AB
:102503000E2402700D43CE04800843CE088003439B
:10251300CE0C9002B7E042CE9002B6E0700643CEF6
:102523008043CE1043CE40221206BCEFFD7C002434
:10253300FFFEEC34FF9001CEF0A3CEF0A3ECF0A3AA
:10254300EDF09001CEE0FFA3E0900262CFF0A3EFA5
:10255300F09001D0E0FCA3E0FD900262E0FEA3E076
:10256300FFC39DEC6480F8EE64809850537C007D3B
:102573000C12061F74EE2FF974013EFA7B019002D0
:1025830062E0FCA3E0FDE4FFFE122953900262E047
:10259300FCA3E0FD25E0FFEC33FE74DA2FF5827433
:1025A300013EF583E0FAA3E0FB7F307E0012202F8B
:1025B300900263E004F07099900262E004F080916D
:1025C300900268E024FFFDE434FFFC7BFF7A3D7951
:1025D300FB7F697E000229534402F500000000419D
:1025E30002FD004202F900004202FB000041028F9B
:1025F300004E01DA000000000000000000000000AF
:10260300000042026400014202600001606001EECA
:1026130044656C61793A00000000000057540000E3
:10262300000000000000000043543A0000000000D6
:1026330000000000537065656400000000000000A6
:10264300536D616C6C000000000000004D69646C08
:10265300653A0000000000004269673A000000008C
:10266300000000005475726E3A0000000000000084
:102673004201D400004E02500000000000000000A0
:102683000000000000000020A420900268E024FF66
:10269300FDE434FFFC7BFF7A3D79FE7F697E001207
:1026A3002953900268E02406802120A6299002681D
:1026B300E024FFFDE434FFFC7BFF7A3D79FE7F6974
:1026C3007E00122953900268E02408540704F01294
:1026D300252F7F5A803A20FC1B900268E0FF25E0FB
:1026E30024D8F582E43401F58374FFF5F012252B29
:1026F3007F3C801C20FE1E900268E0FF25E024D86A
:10270300F582E43401F583E475F00112252B7F3C57
:102713007E0002002620FD03022F0320E907E49038
:102723000264F0A3F0229002B1EFF07E037FE8127F
:1027330006317C007D0C12061FAB07AA06E4F9F8EC
:102743009002F5E0FCA3E0FDA3E0FEA3E0FF120787
:10275300ABC3E49FFFE49EFE9002B1E0F9FD7C0071
:10276300700A8F8AEEF58CD28CD2A922ED64014CCB
:10277300700A8F8BEEF58DD28ED2AB22E9FD7C00F1
:102783006402700C8FD7EEF5D6438E1043AF04224C
:10279300ED64034C700C8FD5EEF5D443D10843AFF1
:1027A3002022E96404700B8FD3EEF5D243D180432A
:1027B300AF4022787FE4F6D8FD7581070227FD023A
:1027C3001CD1E493A3F8E493A34003F68001F20839
:1027D300DFF48029E493A3F85407240CC8C333C45B
:1027E300540F4420C8834004F456800146F6DFE4C6
:1027F300800B01020408102040809025DBE47E0159
:102803009360BCA3FF543F30E509541FFEE493A338
:1028130060010ECF54C025E060A840B8E493A3FA4A
:10282300E493A3F8E493A3C8C582C8CAC583CAF0D6
:10283300A3C8C582C8CAC583CADFE9DEE780BE90E4
:1028430001D6E07004A3E0640170387DFFFC7F24AF
:1028530012216E7DFF7C007F3412216E9001E8E02F
:10286300FCA3E0FD7F0412216EE4FDFC7F14122122
:102873006E9001D8E0FEA3E0FF120026E49001D69B
:10288300F0A3F09001D6E07004A3E06402703990E5
:1028930001E8E0FCA3E0FD7F2412216EE4FDFC7F50
:1028A3003412216E7DFF7C007F0412216E7DFF7C3C
:1028B300007F1412216E9001D8E0FEA3E0FF120006
:1028C30026E49001D6F0A3F0229002A2EBF0A3EA53
:1028D300F0A3E9F09002A5E0FBA3E0FAA3E0F9126C
:1028E30005A5FE9002A2E0FBA3E0FAA3E0F912051E
:1028F300A5FF6E702AEF600E9002A874FFF5F01228
:1029030006BC45F070037F00229002A3E475F0013A
:102913001206BC9002A6E475F0011206BC80B590C5
:1029230002A2E0FBA3E0FAA3E0F91205A5FDD3EEB2
:102933006480F8ED64809840037F01229002A5E053
:10294300FBA3E0FAA3E0F91205A5FFC3ED9FFF2265
:102953009002B1EEF0A3EFF0A3ECF0A3EDF0A3EB44
:10296300F0A3EAF0A3E9F0E4A3F0A3F09002B5E04A
:10297300FBA3E0FAA3E0F9A3E0FEA3E0FFF5828E58
:10298300831205BEFB603EEF7803C333CE33CED84C
:10299300F9FF9002B2E02FFF9002B1E03EFE9002F9
:1029A300B4E0C4F8540FC868FD9002B3E0C454F017
:1029B30048FC12239B9002B9E004F070AF9002B878
:1029C300E004F080A722E47B107A27F9F89002F55F
:1029D300E0FCA3E0FDA3E0FEA3E0FF1207AB90023F
:1029E300F9EEF0A3EFF07B407A42790F7800900282
:1029F300F5E0FCA3E0FDA3E0FEA3E0FF1207ABEFCD
:102A030024FEFFEE34FF9002FBF0A3EFF07F007E85
:102A13001B7DB77C009002F5E0F8A3E0F9A3E0FA90
:102A2300A3E0FBD3120861500E9002FCE004F070A7
:102A3300069002FBE004F022C0E0C0F0C083C08235
:102A4300C0D075D000C000C001C002C003C004C024
:102A530005C006C007E58430E1085384FD9001CD2D
:102A6300E4F0E58430E0285384FE9002FDE0640145
:102A73007005122F5D80189002FDE064027005124C
:102A83002DFA800B9002FDE064037003122F64D0D3
:102A930007D006D005D004D003D002D001D000D097
:102AA300D0D082D083D0F0D0E0329002C5EEF0A334
:102AB300EFF0A3ECF0A3EDF0A3EAF0A3EBF07F2A91
:102AC300122F49E4FF122F539002C5A3E02402FF03
:102AD300122F53E4FF122F539002C9A3E02402FFE5
:102AE300122F537F2B122F49E4FF122F539002C74B
:102AF300A3E004FF122F53E4FF122F539002CBA342
:102B0300E004FF122F537F2C022F4943FF101211B1
:102B13005E9002F51208DA1229C9E4F594F593F5EB
:102B230092F591F596F595F5B2F5B1F5B4F5B3F5E2
:102B3300CAF5C9F5CCF5CBF5E2F5E1F5DEF58EF591
:102B430098F59AF5ACF584F5A2F5BAF5AFF5899049
:102B530002B41208E60001C2009002B87402F07BCE
:102B630001E4FDFF021AFE9002B1EEF0A3EFF09034
:102B730002CBE4F0A3749FF07B7F7A00E4FDFCFFBB
:102B8300FE122AADE49002B3F09002B3E0C394A026
:102B930074809480502BE4A3F09002B4E0C394803B
:102BA3007480948050139002B1E0FEA3E0FF122ED4
:102BB300609002B4E004F080E09002B3E004F0809F
:102BC300C822C0E0C083C082C0D075D000C007E572
:102BD3009830E1085398FD9001CAE4F0E59830E09D
:102BE300255398FEAF99EF647F70169002FEE0FFC5
:102BF30004F0D3EF941474809480400A75C7608006
:102C0300059002FEE4F0D007D0D0D082D083D0E08C
:102C130032E49002AAF0D2B3C2B2C2B3D2B2D2B3F8
:102C2300C2B2F09002AAE0C39480748094805027CB
:102C3300C2B3E4FD7F04122E2F9002AAE025E02404
:102C430001F582E43400F583EEF0A3EFF0D2B39004
:102C530002AAE004F080CC9000007401F0229002FC
:102C6300B5EBF0A3EAF0A3E9F0AD07AC0675C50137
:102C73009002B874FFF5F01206D245F060288DC4B7
:102C8300ECF5C375C65A75C6A59002B5E0FBA3E47F
:102C930075F0011206D2A9F0FAE5C21205EB0DBDDB
:102CA30000010C0080CA229002B3EBF0A3EAF0A368
:102CB300E9F0AD07AC0675C5029002B674FFF5F0F6
:102CC3001206D245F060288DC4ECF5C39002B3E040
:102CD300FBA3E475F0011206D2A9F0FA1205A5F5DB
:102CE300C20DBD00010C75C65A75C6A50080CA2267
:102CF300A286E4FF33900250CFF0A3EFF0A284E466
:102D0300FF33A3CFF0A3EFF0A283E4FF33A3CFF00D
:102D1300A3EFF0A285E4FF33A3CFF0A3EFF0A287E4
:102D2300E4FF33A3CFF0A3EFF0A282E4FF33A3CFFA
:102D3300F0A3EFF022C2D5E830E70FB2D5E4C39B8E
:102D4300FBE49AFAE499F9E498F8EC30E717B2D582
:102D5300122D6E1207ABE4C39BFBE49AFAE499F9D4
:102D6300E498F880031207AB30D50DE4C39FFFE46A
:102D73009EFEE49DFDE49CFC2290026EE0FFD37472
:102D8300049F7480F8985030E0246DF9E43402FA1B
:102D93009002A57401F0A3EAF0A3E9F0A3E4F0A381
:102DA3007404F07BFF7A3D79791228CCEF3395E0F8
:102DB3004F700590029004F022C0E0C0F0C083C0C1
:102DC30082C0D075D000C000C001C002C003C004DF
:102DD300C005C006C00753EFFB122C14D007D00662
:102DE300D005D004D003D002D001D000D0D0D082FF
:102DF300D083D0F0D0E03290028FE064017017905E
:102E0300026EE0FF04F074712FF582E43402F5835F
:102E1300E585F0022D7C90028FE06402700790023A
:102E23006EE004F02290026FE585F022A90553BC01
:102E3300F0EF42BC43BC40E5BC30E5FB53BCDFAF25
:102E4300BDEFFEADBEEDFFE4F5BDF5BEAD01EFA8F0
:102E530005088005CEC313CE13D8F9FF22AD07AC06
:102E630006EC9002C5F0A3EFF0C2A2D2A19002C576
:102E7300E0FF1200469002C6E0FF120046D2A222F3
:102E8300C0E0C083C082E59A30E108539AFD900107
:102E9300CBE4F0E59A30E003539AFED082D083D09E
:102EA300E032C0E0C083C082E5AC30E10853ACFD42
:102EB3009001CCE4F0E5AC30E00353ACFED082D01B
:102EC30083D0E0327B407A42790F78009002F5E0BC
:102ED300FCA3E0FDA3E0FEA3E0FF1207ABEF04F5C4
:102EE300F522C0E0C083C08290025FE004F0700668
:102EF30090025EE004F053EFFDD082D083D0E03245
:102F0300E4FFFE122F397B017A0179DA9002B6E4ED
:102F1300F0A37410F0E4FFFE022CAAE49002B1F0D7
:102F2300A3F07B017A0179DA9002B8F0A37410F070
:102F3300E4FFFE022C6175C5038FC4EEF5C375C6AD
:102F43005A75C6A50022C2A2C2A1120046D2A2226D
:102F5300C2A2D2A1120046D2A2229002A2E585F01B
:102F6300229002A2E585F02243C780022EC700000B
:102F7300000000000000000000000000000000004E
:102F830000080808080808080000080800000048AE
:102F930024241200000000000000000000000000D4
:102FA300004848487E2424247E2424240000000072
:102FB300103C5252121C30505052523C1010000020
:102FC30000222515150D2A585454522200000000E2
:102FD300000C1212120A76252919916E00000006C0
:102FE3000404020000000000000000000000004094
:102FF30020101008080808080810102040000002DC
:103003000408081010101010100808040200000033
:10301300000008086B1C1C6B08080000000000007F
:10302300000000101010FE1010100000000000003F
:10303300000000000000000000000604040200007D
:103043000000000000007E000000000000000000FF
:103053000000000000000000000006060000000061
:103063004020202010100808080404020200000079
:103073000018244242424242424224180000000007
:1030830000101C10101010101010107C0000000015
:10309300003C4242424020100804427E00000000EF
:1030A300003C4242402018204042423C00000000C5
:1030B3000020303028242422FE2020F800000000C5
:1030C300007E0202021E22404042221C0000000039
:1030D30000182402023A46424242443800000000EB
:1030E300007E422020101008080808080000000095
:1030F300003C4242422418244242423C0000000069
:10310300001C22424242625C40402418000000003E
:10311300000000001818000000001818000000004C
:10312300000000000008000000000008080800007C
:103133000040201008040204081020400000000092
:10314300000000007E00007E000000000000000080
:1031530000020408102040201008040200000000B0
:10316300003C4242462010101000181800000000D6
:10317300001C225A55555555553A423C0000000053
:10318300000808181414243C224242E700000000FF
:10319300001F2222221E22424242221F0000000060
:1031A300007C4242010101010142221C0000000097
:1031B300001F2242424242424242221F00000000BC
:1031C300003F4212121E12120242423F0000000050
:1031D300003F4212121E12120202020700000000F8
:1031E300003C2222010101712122221C0000000067
:1031F30000E7424242427E42424242E70000000070
:10320300003E0808080808080808083E00000000F7
:10321300007C10101010101010101010110F00006F
:10322300007722120A0E0A121222227700000000EF
:1032330000070202020202020202427F00000000B3
:10324300007736363636362A2A2A2A6B00000000E3
:1032530000E346464A4A5252526262470000000067
:10326300001C2241414141414141221C0000000018
:10327300003F424242423E020202020700000000B7
:10328300001C224141414141414D321C600000007C
:10329300003F4242423E1212222242C70000000077
:1032A300007C4242020418204042423E00000000DB
:1032B300007F4908080808080808081C00000000E7
:1032C30000E74242424242424242423C0000000086
:1032D30000E74242222424141418080800000000C6
:1032E300006B2A2A2A2A2A36141414140000000018
:1032F30000E7422424181818242442E700000000A1
:1033030000772222141408080808081C0000000093
:10331300007E2120101008040442423F0000007880
:1033230008080808080808080808080878000000C2
:103333000204040408080810102020204040001E46
:103343001010101010101010101010101E00001884
:103353002400000000000000000000000000000046
:103363000000000000007E000000000000000006D6
:103373000800000000000000000000000000000042
:1033830000000000001C22302C22326C00000000E0
:1033930000000302021A26424242261A00000000DD
:1033A300000000000038440202024438000000001C
:1033B30000006040407C4242424262DC0000000068
:1033C30000000000003C42427E02423C000000003C
:1033D30000003048083E08080808083E00000000C6
:1033E30000000000007C22221C023C42423C000000
:1033F30000000302023A4642424242E70000000054
:10340300000C0C00000E08080808083E000000002D
:10341300003030000038202020202020221E000011
:10342300000003020272120A0E122277000000004B
:1034330000080E08080808080808083E00000000F5
:1034430000000000007F9292929292B70000000069
:1034530000000000003B4642424242E700000000F9
:1034630000000000003C42424242423C0000000097
:1034730000000000001B26424242261A02070000F9
:1034830000000000005864424242645840E00000DB
:103493000000000000774C040404041F0000000037
:1034A30000000000007C42023C40423E000000005D
:1034B30000000008083E0808080848300000000023
:1034C3000000000000634242424262DC0000000050
:1034D30000000000007722221414080800000000F6
:1034E3000000000000DB91525A2A2424000000004F
:1034F30000000000006E2418181824760000000055
:103503000000000000E74224241818080806000001
:1035130000000000007E22100808447E000000C066
:10352300202020202020102020202020C000101048
:1035330010101010101010101010101010100003A5
:103543000404040404040804040404040300045AE3
:103553002000000000000000000000000000000048
:10356300000000000000002F00000000070007001B
:1035730000147F147F1400242A7F2A120062640837
:1035830013230036495522500000050300000000B4
:103593001C224100000041221C000014083E0814B4
:1035A3000008083E0808000000A0600000080808A2
:1035B3000808000060600000002010080402003EBC
:1035C3005149453E0000427F400000426151494657
:1035D300002141454B31001814127F100027454547
:1035E3004539003C4A494930000171090503003659
:1035F3004949493600064949291E0000363600006C
:103603000000563600000008142241000014141470
:10361300141400004122140800020151090600326B
:103623004959513E007C1211127C007F49494936A9
:10363300003E41414122007F4141221C007F494914
:103643004941007F09090901003E4149497A007F48
:103653000808087F0000417F4100002040413F01EE
:10366300007F08142241007F40404040007F020C4D
:10367300027F007F0408107F003E4141413E007FEE
:1036830009090906003E4151215E007F09192946B7
:103693000046494949310001017F0101003F404093
:1036A300403F001F2040201F003F4038403F006341
:1036B3001408146300070870080700615149454363
:1036C30000007F41410000552A552A550000414121
:1036D3007F0000040201020400404040404000001B
:1036E30001020400002054545478007F48444438B5
:1036F30000384444442000384444487F003854543C
:10370300541800087E0901020018A4A4A47C007FB9
:10371300080404780000447D4000004080847D005C
:10372300007F102844000000417F4000007C041803
:103733000478007C0804047800384444443800FCCE
:10374300242424180018242418FC007C08040408EA
:1037530000485454542000043F444020003C40405F
:10376300207C001C2040201C003C4030403C004496
:1037730028102844001CA0A0A07C004464544C449E
:1037830014141414141400000000000000000000BE
:10379300000000000000000000F80000000000002E
:1037A30000333000000000100C06100C060000006F
:1037B30000000000000040C07840C0784000043F93
:1037C30004043F040400007088FC08300000001863
:1037D30020FF211E0000F008F000E0180000002187
:1037E3001C031E211E0000F00888700000001E212B
:1037F30023241927211010160E00000000000000DA
:10380300000000000000000000E0180402000000B7
:1038130000071820400000020418E00000000040E8
:10382300201807000000404080F080404000020262
:10383300010F01020200000000F00000000001017E
:10384300011F01010100000000000000000080B022
:1038530070000000000000000000000000000001F4
:10386300010101010101000000000000000000301F
:1038730030000000000000000000806018040060B9
:1038830018060100000000E010080810E000000F17
:10389300102020100F00001010F80000000000207E
:1038A300203F2020000000700808088870000030C6
:1038B300282422213000003008888848300000186E
:1038C300202020110E000000C02010F80000000787
:1038D3000424243F240000F80888880808000019FD
:1038E300212020110E0000E0108888180000000F2E
:1038F300112020110E0000380808C8380800000005
:10390300003F000000000070880808887000001C59
:10391300222121221C0000E010080810E000000012
:10392300312222110F00000000C0C000000000007F
:1039330000303000000000000080000000000000A4
:10394300806000000000000080402010080000019B
:10395300020408102000404040404040400004045E
:103963000404040404000008102040800000002028
:10397300100804020100007048080808F000000065
:10398300003036010000C030C828E810E0000718F6
:10399300272423140B000000C038E0000000203C63
:1039A30023020227382008F8888888700000203F07
:1039B300202020110E00C03008080808380007181E
:1039C30020202010080008F808080810E000203F15
:1039D300202020100F0008F88888E8081000203FF6
:1039E30020202320180008F88888E8081000203FCA
:1039F300200003000000C030080808380000071842
:103A03002020221E020008F808000008F808203FC2
:103A1300210101213F20000808F8080800000020C8
:103A2300203F2020000000000808F8080800C0809C
:103A330080807F00000008F888C028180800203F15
:103A430020012638200008F8080000000000203F6D
:103A530020202020300008F8F800F8F80800203F64
:103A6300003F003F200008F830C00008F808203F5E
:103A7300200007183F00E01008080810E0000F10AE
:103A8300202020100F0008F808080808F000203F45
:103A9300210101010000E01008080810E0000F18E0
:103AA300242438504F0008F8888888887000203F05
:103AB3002000030C30200070880808083800003804
:103AC300202121221C00180808F80808180000000B
:103AD300203F2000000008F808000008F808001F35
:103AE300202020201F000878880000C83808000024
:103AF30007380E010000F80800F80008F800033C3E
:103B03000700073C03000818688080681808203005
:103B13002C03032C30200838C800C83808000000E4
:103B2300203F2000000010080808C838080020388B
:103B3300262120201800000000FE020202000000DF
:103B4300007F40404000000C30C000000000000037
:103B530000010638C00000020202FE00000000401F
:103B630040407F0000000000040202020400000045
:103B73000000000000000000000000000000808042
:103B8300808080808080000202040000000000002A
:103B93000000000000000000808080800000001909
:103BA300242222223F2008F8008080000000003FEA
:103BB300112020110E000000008080800000000E04
:103BC300112020201100000000808088F800000EE2
:103BD300112020103F200000808080800000001F03
:103BE300222222221300008080F088888818002077
:103BF300203F202000000000808080808000006B38
:103C030094949493600008F8008080800000203F23
:103C1300210000203F200080989800000000002031
:103C2300203F20200000000000809898000000C082
:103C33008080807F000008F8000080808000203FA3
:103C430024022D302000000808F8000000000020A6
:103C5300203F202000008080808080808000203FE3
:103C630020003F20003F8080008080800000203FB4
:103C7300210000203F200000808080800000001F82
:103C8300202020201F00808000808000000080FF13
:103C9300A12020110E000000008080808000000E13
:103CA300112020A0FF808080800080808000202061
:103CB3003F212000010000008080808080000033CD
:103CC300242424241900008080E080800000000068
:103CD300001F202000008080000000808000001F63
:103CE300202020103F208080800000808080000101
:103CF3000E300806010080800080008080800F3035
:103D03000C030C300F0000808000808080000020B6
:103D1300312E0E31200080808000008080808081E1
:103D23008E70180601000080808080808000002152
:103D3300302C2221300000000000807C02020000B1
:103D43000000003F404000000000FF0000000000B2
:103D53000000FF0000000002027C80000000004021
:103D6300403F0000000000060101020204040000BD
:103D73000000000000004F4B0D0A000D0A004154E3
:103D83002B003D0041542E2E2E0041542B45584903
:103D9300540041542B52455345540041542B4D413B
:103DA300433F0054504C00424C454D4F4445004165
:103DB300542B424C455354413F004E414D45005016
:103DC3004E414D4500504153454E004F4646004F2E
:103DD3004E005041535300434F4E4E00434F4E410C
:103DE30044440052535349004F4E2C3000626C65DB
:0E3DF30000303030303030003C2D00202000F9
:00000001FF
